:100000000C945C000C9479000C9479000C947900A9
:100010000C9479000C9479000C9479000C9479007C
:100020000C9479000C9479000C9479000C9479006C
:100030000C9479000C9479000C9479000C9479005C
:100040000C94C7000C9479000C9479000C947900FE
:100050000C9479000C9479000C9479000C9479003C
:100060000C9479000C947900000000080002010053
:100070000003040700000000000000000000000072
:10008000250028002B0000000000240027002A0083
:10009000040404040404040402020202020203032E
:1000A0000303030301020408102040800102040836
:1000B000102001020408102011241FBECFEFD8E049
:1000C000DEBFCDBF11E0A0E0B1E0E8E5F5E002C0A1
:1000D00005900D92A831B107D9F721E0A8E1B1E070
:1000E00001C01D92A132B207E1F70E9411010C94E8
:1000F000AA020C94000090E0FC01E859FF4F249103
:10010000FC01EC55FF4F3491FC01E057FF4FE491A7
:10011000EE23C9F0222339F0233001F1A8F4213075
:1001200019F1223029F1F0E0EE0FFF1FE458FF4FE4
:10013000A591B4918FB7F894EC91611126C03095D8
:100140003E233C938FBF08952730A9F02830C9F093
:10015000243049F7809180008F7D03C0809180001A
:100160008F7780938000DFCF84B58F7784BDDBCF1E
:1001700084B58F7DFBCF8091B0008F778093B000E6
:10018000D2CF8091B0008F7DF9CF3E2BDACF1F9276
:100190000F920FB60F9211242F933F938F939F933B
:1001A000AF93BF9380911D0190911E01A0911F01FB
:1001B000B091200130911C0123E0230F2D3758F519
:1001C0000196A11DB11D20931C0180931D019093E8
:1001D0001E01A0931F01B0932001809118019091FE
:1001E0001901A0911A01B0911B010196A11DB11D29
:1001F0008093180190931901A0931A01B0931B01E9
:10020000BF91AF919F918F913F912F910F900FBE12
:100210000F901F90189526E8230F0296A11DB11D7F
:10022000D2CF789484B5826084BD84B5816084BD6A
:1002300085B5826085BD85B5816085BD80916E0084
:10024000816080936E0010928100809181008260B5
:1002500080938100809181008160809381008091F2
:1002600080008160809380008091B10084608093E1
:10027000B1008091B00081608093B00080917A00DD
:10028000846080937A0080917A00826080937A0003
:1002900080917A00816080937A0080917A008068F2
:1002A00080937A001092C100A4E0B1E08D919D91FD
:1002B0009927FC01EC55FF4F249180579F4FFC017B
:1002C0008491882399F090E0880F991FFC01EA57E8
:1002D000FF4FC591D491FC01E458FF4F8591949153
:1002E0008FB7F894E881E22BE8838FBFF1E0A83163
:1002F000BF07E1F689E0C82ED12CE12CF12C00E0FB
:1003000010E0C4E0D1E00E94EF01B8802296A7017E
:1003100096010E9447026F5F7F4F8F4F9F4F617022
:100320007727672B71F461E08B2D0E947B0081E0C1
:10033000C831D80741F70115110519F30E940000D3
:10034000E0CF60E0F1CF8F929F92AF92BF92CF92B9
:10035000DF92EF92FF92CF93DF93EC016881798176
:100360008A819B81611571058105910521F464E203
:1003700079ED8BE597E02DE133EF41E050E00E940D
:10038000470249015A019B01AC01A7EAB1E40E946E
:1003900066026B017C01ACEEB4EFA50194010E94F2
:1003A0007402C60ED71EE81EF91EF7FE06C081E0D5
:1003B000C81AD108E10880E8F80AC882D982EA821E
:1003C000FB82C701B6019F77DF91CF91FF90EF903D
:1003D000DF90CF90BF90AF909F908F9008958F92B5
:1003E0009F92AF92BF92CF92DF92EF92FF92609175
:1003F000000170910101809102019091030161154A
:1004000071058105910521F464E279ED8BE597E0B2
:100410002DE133EF41E050E00E94470249015A01CB
:100420009B01AC01A7EAB1E40E9466026B017C016A
:10043000ACEEB4EFA50194010E947402C60ED71E63
:10044000E81EF91EF7FE06C081E0C81AD108E108CF
:1004500080E8F80AC0920001D0920101E092020106
:10046000F0920301C701B6019F77FF90EF90DF90F4
:10047000CF90BF90AF909F908F90089560930001B0
:100480007093010180930201909303010895052E5A
:1004900097FB1EF400940E945E0257FD07D00E9455
:1004A000790207FC03D04EF40C945E0250954095FF
:1004B000309521953F4F4F4F5F4F08959095809510
:1004C000709561957F4F8F4F9F4F08950E949B02BB
:1004D000A59F900DB49F900DA49F800D911D112498
:1004E0000895B7FF0C9466020E946602821B930B6C
:1004F0000895A1E21A2EAA1BBB1BFD010DC0AA1F65
:10050000BB1FEE1FFF1FA217B307E407F50720F07C
:10051000A21BB30BE40BF50B661F771F881F991FF7
:100520001A9469F760957095809590959B01AC0140
:10053000BD01CF010895A29FB001B39FC001A39F49
:10054000700D811D1124911DB29F700D811D11240C
:08055000911D0895F894FFCFFE
:100558000100000000000100020003000400050083
:0805680006000700080009006D
:00000001FF
